{
  "_format": "hh-sol-artifact-1",
  "contractName": "Whine",
  "sourceName": "contracts/Whine.sol",
  "abi": [
    {
      "inputs": [
        {
          "internalType": "uint96",
          "name": "_ownerTakeBasis",
          "type": "uint96"
        }
      ],
      "stateMutability": "nonpayable",
      "type": "constructor"
    },
    {
      "anonymous": false,
      "inputs": [
        {
          "indexed": true,
          "internalType": "address",
          "name": "owner",
          "type": "address"
        },
        {
          "indexed": true,
          "internalType": "address",
          "name": "approved",
          "type": "address"
        },
        {
          "indexed": true,
          "internalType": "uint256",
          "name": "tokenId",
          "type": "uint256"
        }
      ],
      "name": "Approval",
      "type": "event"
    },
    {
      "anonymous": false,
      "inputs": [
        {
          "indexed": true,
          "internalType": "address",
          "name": "owner",
          "type": "address"
        },
        {
          "indexed": true,
          "internalType": "address",
          "name": "operator",
          "type": "address"
        },
        {
          "indexed": false,
          "internalType": "bool",
          "name": "approved",
          "type": "bool"
        }
      ],
      "name": "ApprovalForAll",
      "type": "event"
    },
    {
      "anonymous": false,
      "inputs": [
        {
          "indexed": true,
          "internalType": "address",
          "name": "wallet",
          "type": "address"
        }
      ],
      "name": "ApproveWinery",
      "type": "event"
    },
    {
      "anonymous": false,
      "inputs": [
        {
          "indexed": true,
          "internalType": "address",
          "name": "to",
          "type": "address"
        }
      ],
      "name": "FeeWithdraw",
      "type": "event"
    },
    {
      "anonymous": false,
      "inputs": [
        {
          "indexed": true,
          "internalType": "address",
          "name": "to",
          "type": "address"
        },
        {
          "indexed": true,
          "internalType": "uint256",
          "name": "tokenId",
          "type": "uint256"
        },
        {
          "indexed": false,
          "internalType": "uint256",
          "name": "amount",
          "type": "uint256"
        }
      ],
      "name": "Payout",
      "type": "event"
    },
    {
      "anonymous": false,
      "inputs": [
        {
          "indexed": true,
          "internalType": "address",
          "name": "wallet",
          "type": "address"
        }
      ],
      "name": "RegisterWinery",
      "type": "event"
    },
    {
      "anonymous": false,
      "inputs": [
        {
          "indexed": true,
          "internalType": "bytes32",
          "name": "role",
          "type": "bytes32"
        },
        {
          "indexed": true,
          "internalType": "bytes32",
          "name": "previousAdminRole",
          "type": "bytes32"
        },
        {
          "indexed": true,
          "internalType": "bytes32",
          "name": "newAdminRole",
          "type": "bytes32"
        }
      ],
      "name": "RoleAdminChanged",
      "type": "event"
    },
    {
      "anonymous": false,
      "inputs": [
        {
          "indexed": true,
          "internalType": "bytes32",
          "name": "role",
          "type": "bytes32"
        },
        {
          "indexed": true,
          "internalType": "address",
          "name": "account",
          "type": "address"
        },
        {
          "indexed": true,
          "internalType": "address",
          "name": "sender",
          "type": "address"
        }
      ],
      "name": "RoleGranted",
      "type": "event"
    },
    {
      "anonymous": false,
      "inputs": [
        {
          "indexed": true,
          "internalType": "bytes32",
          "name": "role",
          "type": "bytes32"
        },
        {
          "indexed": true,
          "internalType": "address",
          "name": "account",
          "type": "address"
        },
        {
          "indexed": true,
          "internalType": "address",
          "name": "sender",
          "type": "address"
        }
      ],
      "name": "RoleRevoked",
      "type": "event"
    },
    {
      "anonymous": false,
      "inputs": [
        {
          "indexed": true,
          "internalType": "address",
          "name": "from",
          "type": "address"
        },
        {
          "indexed": true,
          "internalType": "address",
          "name": "to",
          "type": "address"
        },
        {
          "indexed": true,
          "internalType": "uint256",
          "name": "tokenId",
          "type": "uint256"
        }
      ],
      "name": "Transfer",
      "type": "event"
    },
    {
      "inputs": [],
      "name": "DEFAULT_ADMIN_ROLE",
      "outputs": [
        {
          "internalType": "bytes32",
          "name": "",
          "type": "bytes32"
        }
      ],
      "stateMutability": "view",
      "type": "function"
    },
    {
      "inputs": [],
      "name": "TRUSTEE_ROLE",
      "outputs": [
        {
          "internalType": "bytes32",
          "name": "",
          "type": "bytes32"
        }
      ],
      "stateMutability": "view",
      "type": "function"
    },
    {
      "inputs": [],
      "name": "WINERY_ROLE",
      "outputs": [
        {
          "internalType": "bytes32",
          "name": "",
          "type": "bytes32"
        }
      ],
      "stateMutability": "view",
      "type": "function"
    },
    {
      "inputs": [
        {
          "internalType": "address",
          "name": "to",
          "type": "address"
        },
        {
          "internalType": "uint256",
          "name": "tokenId",
          "type": "uint256"
        }
      ],
      "name": "approve",
      "outputs": [],
      "stateMutability": "nonpayable",
      "type": "function"
    },
    {
      "inputs": [
        {
          "internalType": "address",
          "name": "wallet",
          "type": "address"
        }
      ],
      "name": "approveWinery",
      "outputs": [],
      "stateMutability": "nonpayable",
      "type": "function"
    },
    {
      "inputs": [
        {
          "internalType": "address",
          "name": "owner",
          "type": "address"
        }
      ],
      "name": "balanceOf",
      "outputs": [
        {
          "internalType": "uint256",
          "name": "",
          "type": "uint256"
        }
      ],
      "stateMutability": "view",
      "type": "function"
    },
    {
      "inputs": [
        {
          "internalType": "uint256",
          "name": "tokenId",
          "type": "uint256"
        }
      ],
      "name": "getApproved",
      "outputs": [
        {
          "internalType": "address",
          "name": "",
          "type": "address"
        }
      ],
      "stateMutability": "view",
      "type": "function"
    },
    {
      "inputs": [
        {
          "internalType": "address",
          "name": "wallet",
          "type": "address"
        }
      ],
      "name": "getRegisteredWineryName",
      "outputs": [
        {
          "internalType": "string",
          "name": "",
          "type": "string"
        }
      ],
      "stateMutability": "view",
      "type": "function"
    },
    {
      "inputs": [
        {
          "internalType": "bytes32",
          "name": "role",
          "type": "bytes32"
        }
      ],
      "name": "getRoleAdmin",
      "outputs": [
        {
          "internalType": "bytes32",
          "name": "",
          "type": "bytes32"
        }
      ],
      "stateMutability": "view",
      "type": "function"
    },
    {
      "inputs": [
        {
          "internalType": "bytes32",
          "name": "role",
          "type": "bytes32"
        },
        {
          "internalType": "address",
          "name": "account",
          "type": "address"
        }
      ],
      "name": "grantRole",
      "outputs": [],
      "stateMutability": "nonpayable",
      "type": "function"
    },
    {
      "inputs": [
        {
          "internalType": "bytes32",
          "name": "role",
          "type": "bytes32"
        },
        {
          "internalType": "address",
          "name": "account",
          "type": "address"
        }
      ],
      "name": "hasRole",
      "outputs": [
        {
          "internalType": "bool",
          "name": "",
          "type": "bool"
        }
      ],
      "stateMutability": "view",
      "type": "function"
    },
    {
      "inputs": [
        {
          "internalType": "address",
          "name": "owner",
          "type": "address"
        },
        {
          "internalType": "address",
          "name": "operator",
          "type": "address"
        }
      ],
      "name": "isApprovedForAll",
      "outputs": [
        {
          "internalType": "bool",
          "name": "",
          "type": "bool"
        }
      ],
      "stateMutability": "view",
      "type": "function"
    },
    {
      "inputs": [
        {
          "internalType": "address",
          "name": "to",
          "type": "address"
        },
        {
          "internalType": "string",
          "name": "ipfsMetadataURI",
          "type": "string"
        },
        {
          "internalType": "uint96",
          "name": "royaltyBasis",
          "type": "uint96"
        }
      ],
      "name": "mintNft",
      "outputs": [
        {
          "internalType": "uint256",
          "name": "",
          "type": "uint256"
        }
      ],
      "stateMutability": "nonpayable",
      "type": "function"
    },
    {
      "inputs": [],
      "name": "name",
      "outputs": [
        {
          "internalType": "string",
          "name": "",
          "type": "string"
        }
      ],
      "stateMutability": "view",
      "type": "function"
    },
    {
      "inputs": [
        {
          "internalType": "uint256",
          "name": "tokenId",
          "type": "uint256"
        }
      ],
      "name": "ownerOf",
      "outputs": [
        {
          "internalType": "address",
          "name": "",
          "type": "address"
        }
      ],
      "stateMutability": "view",
      "type": "function"
    },
    {
      "inputs": [
        {
          "internalType": "address",
          "name": "wallet",
          "type": "address"
        },
        {
          "internalType": "string",
          "name": "name",
          "type": "string"
        }
      ],
      "name": "registerWinery",
      "outputs": [],
      "stateMutability": "nonpayable",
      "type": "function"
    },
    {
      "inputs": [
        {
          "internalType": "string",
          "name": "name",
          "type": "string"
        }
      ],
      "name": "registerWinery",
      "outputs": [],
      "stateMutability": "nonpayable",
      "type": "function"
    },
    {
      "inputs": [
        {
          "internalType": "bytes32",
          "name": "role",
          "type": "bytes32"
        },
        {
          "internalType": "address",
          "name": "account",
          "type": "address"
        }
      ],
      "name": "renounceRole",
      "outputs": [],
      "stateMutability": "nonpayable",
      "type": "function"
    },
    {
      "inputs": [
        {
          "internalType": "bytes32",
          "name": "role",
          "type": "bytes32"
        },
        {
          "internalType": "address",
          "name": "account",
          "type": "address"
        }
      ],
      "name": "revokeRole",
      "outputs": [],
      "stateMutability": "nonpayable",
      "type": "function"
    },
    {
      "inputs": [
        {
          "internalType": "uint256",
          "name": "_tokenId",
          "type": "uint256"
        },
        {
          "internalType": "uint256",
          "name": "_salePrice",
          "type": "uint256"
        }
      ],
      "name": "royaltyInfo",
      "outputs": [
        {
          "internalType": "address",
          "name": "",
          "type": "address"
        },
        {
          "internalType": "uint256",
          "name": "",
          "type": "uint256"
        }
      ],
      "stateMutability": "view",
      "type": "function"
    },
    {
      "inputs": [
        {
          "internalType": "address",
          "name": "from",
          "type": "address"
        },
        {
          "internalType": "address",
          "name": "to",
          "type": "address"
        },
        {
          "internalType": "uint256",
          "name": "tokenId",
          "type": "uint256"
        }
      ],
      "name": "safeTransferFrom",
      "outputs": [],
      "stateMutability": "nonpayable",
      "type": "function"
    },
    {
      "inputs": [
        {
          "internalType": "address",
          "name": "from",
          "type": "address"
        },
        {
          "internalType": "address",
          "name": "to",
          "type": "address"
        },
        {
          "internalType": "uint256",
          "name": "tokenId",
          "type": "uint256"
        },
        {
          "internalType": "bytes",
          "name": "_data",
          "type": "bytes"
        }
      ],
      "name": "safeTransferFrom",
      "outputs": [],
      "stateMutability": "nonpayable",
      "type": "function"
    },
    {
      "inputs": [
        {
          "internalType": "address payable",
          "name": "from",
          "type": "address"
        },
        {
          "internalType": "address",
          "name": "to",
          "type": "address"
        },
        {
          "internalType": "uint256",
          "name": "tokenId",
          "type": "uint256"
        },
        {
          "internalType": "uint256",
          "name": "salePrice",
          "type": "uint256"
        }
      ],
      "name": "sell",
      "outputs": [],
      "stateMutability": "payable",
      "type": "function"
    },
    {
      "inputs": [
        {
          "internalType": "address",
          "name": "operator",
          "type": "address"
        },
        {
          "internalType": "bool",
          "name": "approved",
          "type": "bool"
        }
      ],
      "name": "setApprovalForAll",
      "outputs": [],
      "stateMutability": "nonpayable",
      "type": "function"
    },
    {
      "inputs": [
        {
          "internalType": "bytes4",
          "name": "interfaceId",
          "type": "bytes4"
        }
      ],
      "name": "supportsInterface",
      "outputs": [
        {
          "internalType": "bool",
          "name": "",
          "type": "bool"
        }
      ],
      "stateMutability": "view",
      "type": "function"
    },
    {
      "inputs": [],
      "name": "symbol",
      "outputs": [
        {
          "internalType": "string",
          "name": "",
          "type": "string"
        }
      ],
      "stateMutability": "view",
      "type": "function"
    },
    {
      "inputs": [
        {
          "internalType": "uint256",
          "name": "tokenId",
          "type": "uint256"
        }
      ],
      "name": "tokenURI",
      "outputs": [
        {
          "internalType": "string",
          "name": "",
          "type": "string"
        }
      ],
      "stateMutability": "view",
      "type": "function"
    },
    {
      "inputs": [
        {
          "internalType": "address",
          "name": "from",
          "type": "address"
        },
        {
          "internalType": "address",
          "name": "to",
          "type": "address"
        },
        {
          "internalType": "uint256",
          "name": "tokenId",
          "type": "uint256"
        }
      ],
      "name": "transferFrom",
      "outputs": [],
      "stateMutability": "nonpayable",
      "type": "function"
    },
    {
      "inputs": [
        {
          "internalType": "address payable",
          "name": "to",
          "type": "address"
        }
      ],
      "name": "withdrawFees",
      "outputs": [],
      "stateMutability": "nonpayable",
      "type": "function"
    }
  ],
  "bytecode": "0x60806040523480156200001157600080fd5b506040516200544b3803806200544b8339818101604052810190620000379190620004e5565b6040518060400160405280600981526020017f5768696e65204e465400000000000000000000000000000000000000000000008152506040518060400160405280600581526020017f5748494e450000000000000000000000000000000000000000000000000000008152508160009080519060200190620000bb9291906200041e565b508060019080519060200190620000d49291906200041e565b505050620001236040518060400160405280600581526020017f4f574e455200000000000000000000000000000000000000000000000000000081525033620001d460201b6200190f1760201c565b620001386000801b336200027a60201b60201c565b6200016a7f7df5d84b008bada7ebf3cb696b55e4d07d278c6155d14dae907b19d95fa89f4c336200027a60201b60201c565b6200019c7f700b68d05515876e1b5bee45535f56f17ecf1fbb63ac93e8914591401365025d336200027a60201b60201c565b80600b60006101000a8154816bffffffffffffffffffffffff02191690836bffffffffffffffffffffffff16021790555050620006c5565b620002768282604051602401620001ed92919062000563565b6040516020818303038152906040527f319af333000000000000000000000000000000000000000000000000000000007bffffffffffffffffffffffffffffffffffffffffffffffffffffffff19166020820180517bffffffffffffffffffffffffffffffffffffffffffffffffffffffff83818316178352505050506200029060201b60201c565b5050565b6200028c8282620002b960201b60201c565b5050565b60008151905060006a636f6e736f6c652e6c6f679050602083016000808483855afa5050505050565b620002cb8282620003ab60201b60201c565b620003a75760016007600084815260200190815260200160002060000160008373ffffffffffffffffffffffffffffffffffffffff1673ffffffffffffffffffffffffffffffffffffffff16815260200190815260200160002060006101000a81548160ff0219169083151502179055506200034c6200041660201b60201c565b73ffffffffffffffffffffffffffffffffffffffff168173ffffffffffffffffffffffffffffffffffffffff16837f2f8788117e7eff1d82e926ec794901d17c78024a50270940304540a733656f0d60405160405180910390a45b5050565b60006007600084815260200190815260200160002060000160008373ffffffffffffffffffffffffffffffffffffffff1673ffffffffffffffffffffffffffffffffffffffff16815260200190815260200160002060009054906101000a900460ff16905092915050565b600033905090565b8280546200042c9062000635565b90600052602060002090601f0160209004810192826200045057600085556200049c565b82601f106200046b57805160ff19168380011785556200049c565b828001600101855582156200049c579182015b828111156200049b5782518255916020019190600101906200047e565b5b509050620004ab9190620004af565b5090565b5b80821115620004ca576000816000905550600101620004b0565b5090565b600081519050620004df81620006ab565b92915050565b600060208284031215620004f857600080fd5b60006200050884828501620004ce565b91505092915050565b6200051c81620005b3565b82525050565b60006200052f8262000597565b6200053b8185620005a2565b93506200054d818560208601620005ff565b62000558816200069a565b840191505092915050565b600060408201905081810360008301526200057f818562000522565b905062000590602083018462000511565b9392505050565b600081519050919050565b600082825260208201905092915050565b6000620005c082620005c7565b9050919050565b600073ffffffffffffffffffffffffffffffffffffffff82169050919050565b60006bffffffffffffffffffffffff82169050919050565b60005b838110156200061f57808201518184015260208101905062000602565b838111156200062f576000848401525b50505050565b600060028204905060018216806200064e57607f821691505b602082108114156200066557620006646200066b565b5b50919050565b7f4e487b7100000000000000000000000000000000000000000000000000000000600052602260045260246000fd5b6000601f19601f8301169050919050565b620006b681620005e7565b8114620006c257600080fd5b50565b614d7680620006d56000396000f3fe6080604052600436106101c25760003560e01c806342842e0e116100f75780639372183e11610095578063b88d4fde11610064578063b88d4fde1461067a578063c87b56dd146106a3578063d547741f146106e0578063e985e9c514610709576101c2565b80639372183e146105d257806395d89b41146105fb578063a217fddf14610626578063a22cb46514610651576101c2565b80636352211e116100d15780636352211e146104f057806370a082311461052d578063727776491461056a57806391d1485414610595576101c2565b806342842e0e14610475578063455900731461049e5780635dd1a892146104c7576101c2565b806323b872dd116101645780632f2ff15d1161013e5780632f2ff15d146103ca57806331de7d15146103f357806336568abe1461040f578063371c85cb14610438576101c2565b806323b872dd14610326578063248a9ca31461034f5780632a55205a1461038c576101c2565b8063095ea7b3116101a0578063095ea7b31461026c578063164e68de146102955780631bc0ffd6146102be57806323650be7146102e9576101c2565b806301ffc9a7146101c757806306fdde0314610204578063081812fc1461022f575b600080fd5b3480156101d357600080fd5b506101ee60048036038101906101e9919061378d565b610746565b6040516101fb9190613dc1565b60405180910390f35b34801561021057600080fd5b50610219610758565b6040516102269190613df7565b60405180910390f35b34801561023b57600080fd5b5061025660048036038101906102519190613824565b6107ea565b6040516102639190613d31565b60405180910390f35b34801561027857600080fd5b50610293600480360381019061028e91906136ec565b61086f565b005b3480156102a157600080fd5b506102bc60048036038101906102b7919061345f565b610987565b005b3480156102ca57600080fd5b506102d3610a3f565b6040516102e09190613ddc565b60405180910390f35b3480156102f557600080fd5b50610310600480360381019061030b9190613436565b610a63565b60405161031d9190613df7565b60405180910390f35b34801561033257600080fd5b5061034d60048036038101906103489190613527565b610bb8565b005b34801561035b57600080fd5b5061037660048036038101906103719190613728565b610c18565b6040516103839190613ddc565b60405180910390f35b34801561039857600080fd5b506103b360048036038101906103ae919061384d565b610c38565b6040516103c1929190613d98565b60405180910390f35b3480156103d657600080fd5b506103f160048036038101906103ec9190613751565b610e23565b005b61040d60048036038101906104089190613488565b610e44565b005b34801561041b57600080fd5b5061043660048036038101906104319190613751565b610fee565b005b34801561044457600080fd5b5061045f600480360381019061045a9190613685565b611071565b60405161046c9190614160565b60405180910390f35b34801561048157600080fd5b5061049c60048036038101906104979190613527565b61111f565b005b3480156104aa57600080fd5b506104c560048036038101906104c0919061362d565b61113f565b005b3480156104d357600080fd5b506104ee60048036038101906104e99190613436565b6112a3565b005b3480156104fc57600080fd5b5061051760048036038101906105129190613824565b6113ef565b6040516105249190613d31565b60405180910390f35b34801561053957600080fd5b50610554600480360381019061054f9190613436565b6114a1565b6040516105619190614160565b60405180910390f35b34801561057657600080fd5b5061057f611559565b60405161058c9190613ddc565b60405180910390f35b3480156105a157600080fd5b506105bc60048036038101906105b79190613751565b61157d565b6040516105c99190613dc1565b60405180910390f35b3480156105de57600080fd5b506105f960048036038101906105f491906137df565b6115e8565b005b34801561060757600080fd5b506106106115f7565b60405161061d9190613df7565b60405180910390f35b34801561063257600080fd5b5061063b611689565b6040516106489190613ddc565b60405180910390f35b34801561065d57600080fd5b50610678600480360381019061067391906135f1565b611690565b005b34801561068657600080fd5b506106a1600480360381019061069c9190613576565b6116a6565b005b3480156106af57600080fd5b506106ca60048036038101906106c59190613824565b611708565b6040516106d79190613df7565b60405180910390f35b3480156106ec57600080fd5b5061070760048036038101906107029190613751565b61185a565b005b34801561071557600080fd5b50610730600480360381019061072b91906134eb565b61187b565b60405161073d9190613dc1565b60405180910390f35b6000610751826119ab565b9050919050565b6060600080546107679061446e565b80601f01602080910402602001604051908101604052809291908181526020018280546107939061446e565b80156107e05780601f106107b5576101008083540402835291602001916107e0565b820191906000526020600020905b8154815290600101906020018083116107c357829003601f168201915b5050505050905090565b60006107f582611a25565b610834576040517f08c379a000000000000000000000000000000000000000000000000000000000815260040161082b90614040565b60405180910390fd5b6004600083815260200190815260200160002060009054906101000a900473ffffffffffffffffffffffffffffffffffffffff169050919050565b600061087a826113ef565b90508073ffffffffffffffffffffffffffffffffffffffff168373ffffffffffffffffffffffffffffffffffffffff1614156108eb576040517f08c379a00000000000000000000000000000000000000000000000000000000081526004016108e290614080565b60405180910390fd5b8073ffffffffffffffffffffffffffffffffffffffff1661090a611a91565b73ffffffffffffffffffffffffffffffffffffffff161480610939575061093881610933611a91565b61187b565b5b610978576040517f08c379a000000000000000000000000000000000000000000000000000000000815260040161096f90613f80565b60405180910390fd5b6109828383611a99565b505050565b7f700b68d05515876e1b5bee45535f56f17ecf1fbb63ac93e8914591401365025d6109b181611b52565b8173ffffffffffffffffffffffffffffffffffffffff166108fc479081150290604051600060405180830381858888f193505050501580156109f7573d6000803e3d6000fd5b508173ffffffffffffffffffffffffffffffffffffffff167fca9caeeb4c95b197f3d0dd8b18e75a81d050b3be8da285e3c5d5181f2b4eef4260405160405180910390a25050565b7f7df5d84b008bada7ebf3cb696b55e4d07d278c6155d14dae907b19d95fa89f4c81565b6060610aa46040518060400160405280600681526020017f67657452574e00000000000000000000000000000000000000000000000000008152508361190f565b6000600c60008473ffffffffffffffffffffffffffffffffffffffff1673ffffffffffffffffffffffffffffffffffffffff1681526020019081526020016000208054610af09061446e565b80601f0160208091040260200160405190810160405280929190818152602001828054610b1c9061446e565b8015610b695780601f10610b3e57610100808354040283529160200191610b69565b820191906000526020600020905b815481529060010190602001808311610b4c57829003601f168201915b50505050509050610baf6040518060400160405280600481526020017f6e616d650000000000000000000000000000000000000000000000000000000081525082611b66565b80915050919050565b610bc9610bc3611a91565b82611c02565b610c08576040517f08c379a0000000000000000000000000000000000000000000000000000000008152600401610bff906140a0565b60405180910390fd5b610c13838383611ce0565b505050565b600060076000838152602001908152602001600020600101549050919050565b6000806000600960008681526020019081526020016000206040518060400160405290816000820160009054906101000a900473ffffffffffffffffffffffffffffffffffffffff1673ffffffffffffffffffffffffffffffffffffffff1673ffffffffffffffffffffffffffffffffffffffff1681526020016000820160149054906101000a90046bffffffffffffffffffffffff166bffffffffffffffffffffffff166bffffffffffffffffffffffff16815250509050600073ffffffffffffffffffffffffffffffffffffffff16816000015173ffffffffffffffffffffffffffffffffffffffff161415610dce5760086040518060400160405290816000820160009054906101000a900473ffffffffffffffffffffffffffffffffffffffff1673ffffffffffffffffffffffffffffffffffffffff1673ffffffffffffffffffffffffffffffffffffffff1681526020016000820160149054906101000a90046bffffffffffffffffffffffff166bffffffffffffffffffffffff166bffffffffffffffffffffffff168152505090505b6000610dd8611f47565b6bffffffffffffffffffffffff1682602001516bffffffffffffffffffffffff1686610e0491906142cc565b610e0e919061429b565b90508160000151819350935050509250929050565b610e2c82610c18565b610e3581611b52565b610e3f8383611f51565b505050565b610e4f84848461111f565b80341015610e92576040517f08c379a0000000000000000000000000000000000000000000000000000000008152600401610e8990614120565b60405180910390fd5b600080610e9f8484610c38565b8092508193505050600061271084600b60009054906101000a90046bffffffffffffffffffffffff166bffffffffffffffffffffffff16610ee091906142cc565b610eea919061429b565b90506000818386610efb9190614326565b610f059190614326565b90508373ffffffffffffffffffffffffffffffffffffffff166108fc849081150290604051600060405180830381858888f19350505050158015610f4d573d6000803e3d6000fd5b508773ffffffffffffffffffffffffffffffffffffffff166108fc829081150290604051600060405180830381858888f19350505050158015610f94573d6000803e3d6000fd5b50858473ffffffffffffffffffffffffffffffffffffffff167f634235fcf5af0adbca1a405ec65f6f6c08f55e1f379c2c45cd10f23cb29e0e3185604051610fdc9190614160565b60405180910390a35050505050505050565b610ff6611a91565b73ffffffffffffffffffffffffffffffffffffffff168173ffffffffffffffffffffffffffffffffffffffff1614611063576040517f08c379a000000000000000000000000000000000000000000000000000000000815260040161105a90614140565b60405180910390fd5b61106d8282612032565b5050565b60007f7df5d84b008bada7ebf3cb696b55e4d07d278c6155d14dae907b19d95fa89f4c61109d81611b52565b6110dc6040518060400160405280600681526020017f4d494e54455200000000000000000000000000000000000000000000000000008152503361190f565b6110e6600a612114565b60006110f2600a61212a565b90506110fe8682612138565b6111088186612156565b6111138133866121ca565b80925050509392505050565b61113a838383604051806020016040528060008152506116a6565b505050565b6000600c60008573ffffffffffffffffffffffffffffffffffffffff1673ffffffffffffffffffffffffffffffffffffffff168152602001908152602001600020805461118b9061446e565b9050146111cd576040517f08c379a00000000000000000000000000000000000000000000000000000000081526004016111c490613f00565b60405180910390fd5b61120c6040518060400160405280600881526020017f52454749535445520000000000000000000000000000000000000000000000008152508461190f565b8181600c60008673ffffffffffffffffffffffffffffffffffffffff1673ffffffffffffffffffffffffffffffffffffffff168152602001908152602001600020919061125a92919061314b565b508273ffffffffffffffffffffffffffffffffffffffff167fb0ddd4ee1baf9e42af730fd18f0e314d9a8c81d84198f9d1c4e32759a3a6789260405160405180910390a2505050565b6000801b6112b081611b52565b6000600c60008473ffffffffffffffffffffffffffffffffffffffff1673ffffffffffffffffffffffffffffffffffffffff16815260200190815260200160002080546112fc9061446e565b9050141561133f576040517f08c379a000000000000000000000000000000000000000000000000000000000815260040161133690614100565b60405180910390fd5b6113697f7df5d84b008bada7ebf3cb696b55e4d07d278c6155d14dae907b19d95fa89f4c83610e23565b6113a86040518060400160405280600781526020017f415050524f5645000000000000000000000000000000000000000000000000008152508361190f565b8173ffffffffffffffffffffffffffffffffffffffff167fe8b7a2962a6c053dae5d5b9eb2b4de8cb18148b862a806111f3e2495ff87447460405160405180910390a25050565b6000806002600084815260200190815260200160002060009054906101000a900473ffffffffffffffffffffffffffffffffffffffff169050600073ffffffffffffffffffffffffffffffffffffffff168173ffffffffffffffffffffffffffffffffffffffff161415611498576040517f08c379a000000000000000000000000000000000000000000000000000000000815260040161148f90613fc0565b60405180910390fd5b80915050919050565b60008073ffffffffffffffffffffffffffffffffffffffff168273ffffffffffffffffffffffffffffffffffffffff161415611512576040517f08c379a000000000000000000000000000000000000000000000000000000000815260040161150990613fa0565b60405180910390fd5b600360008373ffffffffffffffffffffffffffffffffffffffff1673ffffffffffffffffffffffffffffffffffffffff168152602001908152602001600020549050919050565b7f700b68d05515876e1b5bee45535f56f17ecf1fbb63ac93e8914591401365025d81565b60006007600084815260200190815260200160002060000160008373ffffffffffffffffffffffffffffffffffffffff1673ffffffffffffffffffffffffffffffffffffffff16815260200190815260200160002060009054906101000a900460ff16905092915050565b6115f333838361113f565b5050565b6060600180546116069061446e565b80601f01602080910402602001604051908101604052809291908181526020018280546116329061446e565b801561167f5780601f106116545761010080835404028352916020019161167f565b820191906000526020600020905b81548152906001019060200180831161166257829003601f168201915b5050505050905090565b6000801b81565b6116a261169b611a91565b8383612372565b5050565b6116b76116b1611a91565b83611c02565b6116f6576040517f08c379a00000000000000000000000000000000000000000000000000000000081526004016116ed906140a0565b60405180910390fd5b611702848484846124df565b50505050565b606061171382611a25565b611752576040517f08c379a000000000000000000000000000000000000000000000000000000000815260040161174990614020565b60405180910390fd5b60006006600084815260200190815260200160002080546117729061446e565b80601f016020809104026020016040519081016040528092919081815260200182805461179e9061446e565b80156117eb5780601f106117c0576101008083540402835291602001916117eb565b820191906000526020600020905b8154815290600101906020018083116117ce57829003601f168201915b5050505050905060006117fc61253b565b9050600081511415611812578192505050611855565b60008251111561184757808260405160200161182f929190613cd3565b60405160208183030381529060405292505050611855565b61185084612578565b925050505b919050565b61186382610c18565b61186c81611b52565b6118768383612032565b505050565b6000600560008473ffffffffffffffffffffffffffffffffffffffff1673ffffffffffffffffffffffffffffffffffffffff16815260200190815260200160002060008373ffffffffffffffffffffffffffffffffffffffff1673ffffffffffffffffffffffffffffffffffffffff16815260200190815260200160002060009054906101000a900460ff16905092915050565b6119a78282604051602401611925929190613e19565b6040516020818303038152906040527f319af333000000000000000000000000000000000000000000000000000000007bffffffffffffffffffffffffffffffffffffffffffffffffffffffff19166020820180517bffffffffffffffffffffffffffffffffffffffffffffffffffffffff838183161783525050505061261f565b5050565b60007f2a55205a000000000000000000000000000000000000000000000000000000007bffffffffffffffffffffffffffffffffffffffffffffffffffffffff1916827bffffffffffffffffffffffffffffffffffffffffffffffffffffffff19161480611a1e5750611a1d82612648565b5b9050919050565b60008073ffffffffffffffffffffffffffffffffffffffff166002600084815260200190815260200160002060009054906101000a900473ffffffffffffffffffffffffffffffffffffffff1673ffffffffffffffffffffffffffffffffffffffff1614159050919050565b600033905090565b816004600083815260200190815260200160002060006101000a81548173ffffffffffffffffffffffffffffffffffffffff021916908373ffffffffffffffffffffffffffffffffffffffff160217905550808273ffffffffffffffffffffffffffffffffffffffff16611b0c836113ef565b73ffffffffffffffffffffffffffffffffffffffff167f8c5be1e5ebec7d5bd14f71427d1e84f3dd0314c0f7b2291e5b200ac8c7c3b92560405160405180910390a45050565b611b6381611b5e611a91565b6126c2565b50565b611bfe8282604051602401611b7c929190613e49565b6040516020818303038152906040527f4b5c4277000000000000000000000000000000000000000000000000000000007bffffffffffffffffffffffffffffffffffffffffffffffffffffffff19166020820180517bffffffffffffffffffffffffffffffffffffffffffffffffffffffff838183161783525050505061261f565b5050565b6000611c0d82611a25565b611c4c576040517f08c379a0000000000000000000000000000000000000000000000000000000008152600401611c4390613f60565b60405180910390fd5b6000611c57836113ef565b90508073ffffffffffffffffffffffffffffffffffffffff168473ffffffffffffffffffffffffffffffffffffffff161480611c995750611c98818561187b565b5b80611cd757508373ffffffffffffffffffffffffffffffffffffffff16611cbf846107ea565b73ffffffffffffffffffffffffffffffffffffffff16145b91505092915050565b8273ffffffffffffffffffffffffffffffffffffffff16611d00826113ef565b73ffffffffffffffffffffffffffffffffffffffff1614611d56576040517f08c379a0000000000000000000000000000000000000000000000000000000008152600401611d4d90613ec0565b60405180910390fd5b600073ffffffffffffffffffffffffffffffffffffffff168273ffffffffffffffffffffffffffffffffffffffff161415611dc6576040517f08c379a0000000000000000000000000000000000000000000000000000000008152600401611dbd90613f20565b60405180910390fd5b611dd183838361275f565b611ddc600082611a99565b6001600360008573ffffffffffffffffffffffffffffffffffffffff1673ffffffffffffffffffffffffffffffffffffffff1681526020019081526020016000206000828254611e2c9190614326565b925050819055506001600360008473ffffffffffffffffffffffffffffffffffffffff1673ffffffffffffffffffffffffffffffffffffffff1681526020019081526020016000206000828254611e839190614245565b92505081905550816002600083815260200190815260200160002060006101000a81548173ffffffffffffffffffffffffffffffffffffffff021916908373ffffffffffffffffffffffffffffffffffffffff160217905550808273ffffffffffffffffffffffffffffffffffffffff168473ffffffffffffffffffffffffffffffffffffffff167fddf252ad1be2c89b69c2b068fc378daa952ba7f163c4a11628f55a4df523b3ef60405160405180910390a4611f42838383612764565b505050565b6000612710905090565b611f5b828261157d565b61202e5760016007600084815260200190815260200160002060000160008373ffffffffffffffffffffffffffffffffffffffff1673ffffffffffffffffffffffffffffffffffffffff16815260200190815260200160002060006101000a81548160ff021916908315150217905550611fd3611a91565b73ffffffffffffffffffffffffffffffffffffffff168173ffffffffffffffffffffffffffffffffffffffff16837f2f8788117e7eff1d82e926ec794901d17c78024a50270940304540a733656f0d60405160405180910390a45b5050565b61203c828261157d565b156121105760006007600084815260200190815260200160002060000160008373ffffffffffffffffffffffffffffffffffffffff1673ffffffffffffffffffffffffffffffffffffffff16815260200190815260200160002060006101000a81548160ff0219169083151502179055506120b5611a91565b73ffffffffffffffffffffffffffffffffffffffff168173ffffffffffffffffffffffffffffffffffffffff16837ff6391f5c32d9c69d2a47ea670b442974b53935d1edc7fd64eb21e047a839171b60405160405180910390a45b5050565b6001816000016000828254019250508190555050565b600081600001549050919050565b612152828260405180602001604052806000815250612769565b5050565b61215f82611a25565b61219e576040517f08c379a000000000000000000000000000000000000000000000000000000000815260040161219590613fe0565b60405180910390fd5b806006600084815260200190815260200160002090805190602001906121c59291906131d1565b505050565b6121d2611f47565b6bffffffffffffffffffffffff16816bffffffffffffffffffffffff161115612230576040517f08c379a0000000000000000000000000000000000000000000000000000000008152600401612227906140e0565b60405180910390fd5b600073ffffffffffffffffffffffffffffffffffffffff168273ffffffffffffffffffffffffffffffffffffffff1614156122a0576040517f08c379a0000000000000000000000000000000000000000000000000000000008152600401612297906140c0565b60405180910390fd5b60405180604001604052808373ffffffffffffffffffffffffffffffffffffffff168152602001826bffffffffffffffffffffffff168152506009600085815260200190815260200160002060008201518160000160006101000a81548173ffffffffffffffffffffffffffffffffffffffff021916908373ffffffffffffffffffffffffffffffffffffffff16021790555060208201518160000160146101000a8154816bffffffffffffffffffffffff02191690836bffffffffffffffffffffffff160217905550905050505050565b8173ffffffffffffffffffffffffffffffffffffffff168373ffffffffffffffffffffffffffffffffffffffff1614156123e1576040517f08c379a00000000000000000000000000000000000000000000000000000000081526004016123d890613f40565b60405180910390fd5b80600560008573ffffffffffffffffffffffffffffffffffffffff1673ffffffffffffffffffffffffffffffffffffffff16815260200190815260200160002060008473ffffffffffffffffffffffffffffffffffffffff1673ffffffffffffffffffffffffffffffffffffffff16815260200190815260200160002060006101000a81548160ff0219169083151502179055508173ffffffffffffffffffffffffffffffffffffffff168373ffffffffffffffffffffffffffffffffffffffff167f17307eab39ab6107e8899845ad3d59bd9653f200f220920489ca2b5937696c31836040516124d29190613dc1565b60405180910390a3505050565b6124ea848484611ce0565b6124f6848484846127c4565b612535576040517f08c379a000000000000000000000000000000000000000000000000000000000815260040161252c90613ea0565b60405180910390fd5b50505050565b60606040518060400160405280600781526020017f697066733a2f2f00000000000000000000000000000000000000000000000000815250905090565b606061258382611a25565b6125c2576040517f08c379a00000000000000000000000000000000000000000000000000000000081526004016125b990614060565b60405180910390fd5b60006125cc61253b565b905060008151116125ec5760405180602001604052806000815250612617565b806125f68461295b565b604051602001612607929190613cd3565b6040516020818303038152906040525b915050919050565b60008151905060006a636f6e736f6c652e6c6f679050602083016000808483855afa5050505050565b60007f7965db0b000000000000000000000000000000000000000000000000000000007bffffffffffffffffffffffffffffffffffffffffffffffffffffffff1916827bffffffffffffffffffffffffffffffffffffffffffffffffffffffff191614806126bb57506126ba82612b08565b5b9050919050565b6126cc828261157d565b61275b576126f18173ffffffffffffffffffffffffffffffffffffffff166014612bea565b6126ff8360001c6020612bea565b604051602001612710929190613cf7565b6040516020818303038152906040526040517f08c379a00000000000000000000000000000000000000000000000000000000081526004016127529190613df7565b60405180910390fd5b5050565b505050565b505050565b6127738383612ee4565b61278060008484846127c4565b6127bf576040517f08c379a00000000000000000000000000000000000000000000000000000000081526004016127b690613ea0565b60405180910390fd5b505050565b60006127e58473ffffffffffffffffffffffffffffffffffffffff166130be565b1561294e578373ffffffffffffffffffffffffffffffffffffffff1663150b7a0261280e611a91565b8786866040518563ffffffff1660e01b81526004016128309493929190613d4c565b602060405180830381600087803b15801561284a57600080fd5b505af192505050801561287b57506040513d601f19601f8201168201806040525081019061287891906137b6565b60015b6128fe573d80600081146128ab576040519150601f19603f3d011682016040523d82523d6000602084013e6128b0565b606091505b506000815114156128f6576040517f08c379a00000000000000000000000000000000000000000000000000000000081526004016128ed90613ea0565b60405180910390fd5b805181602001fd5b63150b7a0260e01b7bffffffffffffffffffffffffffffffffffffffffffffffffffffffff1916817bffffffffffffffffffffffffffffffffffffffffffffffffffffffff191614915050612953565b600190505b949350505050565b606060008214156129a3576040518060400160405280600181526020017f30000000000000000000000000000000000000000000000000000000000000008152509050612b03565b600082905060005b600082146129d55780806129be906144d1565b915050600a826129ce919061429b565b91506129ab565b60008167ffffffffffffffff811115612a17577f4e487b7100000000000000000000000000000000000000000000000000000000600052604160045260246000fd5b6040519080825280601f01601f191660200182016040528015612a495781602001600182028036833780820191505090505b5090505b60008514612afc57600182612a629190614326565b9150600a85612a71919061451a565b6030612a7d9190614245565b60f81b818381518110612ab9577f4e487b7100000000000000000000000000000000000000000000000000000000600052603260045260246000fd5b60200101907effffffffffffffffffffffffffffffffffffffffffffffffffffffffffffff1916908160001a905350600a85612af5919061429b565b9450612a4d565b8093505050505b919050565b60007f80ac58cd000000000000000000000000000000000000000000000000000000007bffffffffffffffffffffffffffffffffffffffffffffffffffffffff1916827bffffffffffffffffffffffffffffffffffffffffffffffffffffffff19161480612bd357507f5b5e139f000000000000000000000000000000000000000000000000000000007bffffffffffffffffffffffffffffffffffffffffffffffffffffffff1916827bffffffffffffffffffffffffffffffffffffffffffffffffffffffff1916145b80612be35750612be2826130e1565b5b9050919050565b606060006002836002612bfd91906142cc565b612c079190614245565b67ffffffffffffffff811115612c46577f4e487b7100000000000000000000000000000000000000000000000000000000600052604160045260246000fd5b6040519080825280601f01601f191660200182016040528015612c785781602001600182028036833780820191505090505b5090507f300000000000000000000000000000000000000000000000000000000000000081600081518110612cd6577f4e487b7100000000000000000000000000000000000000000000000000000000600052603260045260246000fd5b60200101907effffffffffffffffffffffffffffffffffffffffffffffffffffffffffffff1916908160001a9053507f780000000000000000000000000000000000000000000000000000000000000081600181518110612d60577f4e487b7100000000000000000000000000000000000000000000000000000000600052603260045260246000fd5b60200101907effffffffffffffffffffffffffffffffffffffffffffffffffffffffffffff1916908160001a90535060006001846002612da091906142cc565b612daa9190614245565b90505b6001811115612e96577f3031323334353637383961626364656600000000000000000000000000000000600f861660108110612e12577f4e487b7100000000000000000000000000000000000000000000000000000000600052603260045260246000fd5b1a60f81b828281518110612e4f577f4e487b7100000000000000000000000000000000000000000000000000000000600052603260045260246000fd5b60200101907effffffffffffffffffffffffffffffffffffffffffffffffffffffffffffff1916908160001a905350600485901c945080612e8f90614444565b9050612dad565b5060008414612eda576040517f08c379a0000000000000000000000000000000000000000000000000000000008152600401612ed190613e80565b60405180910390fd5b8091505092915050565b600073ffffffffffffffffffffffffffffffffffffffff168273ffffffffffffffffffffffffffffffffffffffff161415612f54576040517f08c379a0000000000000000000000000000000000000000000000000000000008152600401612f4b90614000565b60405180910390fd5b612f5d81611a25565b15612f9d576040517f08c379a0000000000000000000000000000000000000000000000000000000008152600401612f9490613ee0565b60405180910390fd5b612fa96000838361275f565b6001600360008473ffffffffffffffffffffffffffffffffffffffff1673ffffffffffffffffffffffffffffffffffffffff1681526020019081526020016000206000828254612ff99190614245565b92505081905550816002600083815260200190815260200160002060006101000a81548173ffffffffffffffffffffffffffffffffffffffff021916908373ffffffffffffffffffffffffffffffffffffffff160217905550808273ffffffffffffffffffffffffffffffffffffffff16600073ffffffffffffffffffffffffffffffffffffffff167fddf252ad1be2c89b69c2b068fc378daa952ba7f163c4a11628f55a4df523b3ef60405160405180910390a46130ba60008383612764565b5050565b6000808273ffffffffffffffffffffffffffffffffffffffff163b119050919050565b60007f01ffc9a7000000000000000000000000000000000000000000000000000000007bffffffffffffffffffffffffffffffffffffffffffffffffffffffff1916827bffffffffffffffffffffffffffffffffffffffffffffffffffffffff1916149050919050565b8280546131579061446e565b90600052602060002090601f01602090048101928261317957600085556131c0565b82601f1061319257803560ff19168380011785556131c0565b828001600101855582156131c0579182015b828111156131bf5782358255916020019190600101906131a4565b5b5090506131cd9190613257565b5090565b8280546131dd9061446e565b90600052602060002090601f0160209004810192826131ff5760008555613246565b82601f1061321857805160ff1916838001178555613246565b82800160010185558215613246579182015b8281111561324557825182559160200191906001019061322a565b5b5090506132539190613257565b5090565b5b80821115613270576000816000905550600101613258565b5090565b6000613287613282846141a0565b61417b565b90508281526020810184848401111561329f57600080fd5b6132aa848285614402565b509392505050565b60006132c56132c0846141d1565b61417b565b9050828152602081018484840111156132dd57600080fd5b6132e8848285614402565b509392505050565b6000813590506132ff81614c9f565b92915050565b60008135905061331481614cb6565b92915050565b60008135905061332981614ccd565b92915050565b60008135905061333e81614ce4565b92915050565b60008135905061335381614cfb565b92915050565b60008151905061336881614cfb565b92915050565b600082601f83011261337f57600080fd5b813561338f848260208601613274565b91505092915050565b60008083601f8401126133aa57600080fd5b8235905067ffffffffffffffff8111156133c357600080fd5b6020830191508360018202830111156133db57600080fd5b9250929050565b600082601f8301126133f357600080fd5b81356134038482602086016132b2565b91505092915050565b60008135905061341b81614d12565b92915050565b60008135905061343081614d29565b92915050565b60006020828403121561344857600080fd5b6000613456848285016132f0565b91505092915050565b60006020828403121561347157600080fd5b600061347f84828501613305565b91505092915050565b6000806000806080858703121561349e57600080fd5b60006134ac87828801613305565b94505060206134bd878288016132f0565b93505060406134ce8782880161340c565b92505060606134df8782880161340c565b91505092959194509250565b600080604083850312156134fe57600080fd5b600061350c858286016132f0565b925050602061351d858286016132f0565b9150509250929050565b60008060006060848603121561353c57600080fd5b600061354a868287016132f0565b935050602061355b868287016132f0565b925050604061356c8682870161340c565b9150509250925092565b6000806000806080858703121561358c57600080fd5b600061359a878288016132f0565b94505060206135ab878288016132f0565b93505060406135bc8782880161340c565b925050606085013567ffffffffffffffff8111156135d957600080fd5b6135e58782880161336e565b91505092959194509250565b6000806040838503121561360457600080fd5b6000613612858286016132f0565b92505060206136238582860161331a565b9150509250929050565b60008060006040848603121561364257600080fd5b6000613650868287016132f0565b935050602084013567ffffffffffffffff81111561366d57600080fd5b61367986828701613398565b92509250509250925092565b60008060006060848603121561369a57600080fd5b60006136a8868287016132f0565b935050602084013567ffffffffffffffff8111156136c557600080fd5b6136d1868287016133e2565b92505060406136e286828701613421565b9150509250925092565b600080604083850312156136ff57600080fd5b600061370d858286016132f0565b925050602061371e8582860161340c565b9150509250929050565b60006020828403121561373a57600080fd5b60006137488482850161332f565b91505092915050565b6000806040838503121561376457600080fd5b60006137728582860161332f565b9250506020613783858286016132f0565b9150509250929050565b60006020828403121561379f57600080fd5b60006137ad84828501613344565b91505092915050565b6000602082840312156137c857600080fd5b60006137d684828501613359565b91505092915050565b600080602083850312156137f257600080fd5b600083013567ffffffffffffffff81111561380c57600080fd5b61381885828601613398565b92509250509250929050565b60006020828403121561383657600080fd5b60006138448482850161340c565b91505092915050565b6000806040838503121561386057600080fd5b600061386e8582860161340c565b925050602061387f8582860161340c565b9150509250929050565b6138928161435a565b82525050565b6138a18161437e565b82525050565b6138b08161438a565b82525050565b60006138c182614202565b6138cb8185614218565b93506138db818560208601614411565b6138e481614607565b840191505092915050565b60006138fa8261420d565b6139048185614229565b9350613914818560208601614411565b61391d81614607565b840191505092915050565b60006139338261420d565b61393d818561423a565b935061394d818560208601614411565b80840191505092915050565b6000613966602083614229565b915061397182614618565b602082019050919050565b6000613989603283614229565b915061399482614641565b604082019050919050565b60006139ac602583614229565b91506139b782614690565b604082019050919050565b60006139cf601c83614229565b91506139da826146df565b602082019050919050565b60006139f2602183614229565b91506139fd82614708565b604082019050919050565b6000613a15602483614229565b9150613a2082614757565b604082019050919050565b6000613a38601983614229565b9150613a43826147a6565b602082019050919050565b6000613a5b602c83614229565b9150613a66826147cf565b604082019050919050565b6000613a7e603883614229565b9150613a898261481e565b604082019050919050565b6000613aa1602a83614229565b9150613aac8261486d565b604082019050919050565b6000613ac4602983614229565b9150613acf826148bc565b604082019050919050565b6000613ae7602e83614229565b9150613af28261490b565b604082019050919050565b6000613b0a602083614229565b9150613b158261495a565b602082019050919050565b6000613b2d603183614229565b9150613b3882614983565b604082019050919050565b6000613b50602c83614229565b9150613b5b826149d2565b604082019050919050565b6000613b73602f83614229565b9150613b7e82614a21565b604082019050919050565b6000613b96602183614229565b9150613ba182614a70565b604082019050919050565b6000613bb9603183614229565b9150613bc482614abf565b604082019050919050565b6000613bdc601b83614229565b9150613be782614b0e565b602082019050919050565b6000613bff60178361423a565b9150613c0a82614b37565b601782019050919050565b6000613c22602a83614229565b9150613c2d82614b60565b604082019050919050565b6000613c45601583614229565b9150613c5082614baf565b602082019050919050565b6000613c6860118361423a565b9150613c7382614bd8565b601182019050919050565b6000613c8b602683614229565b9150613c9682614c01565b604082019050919050565b6000613cae602f83614229565b9150613cb982614c50565b604082019050919050565b613ccd816143e0565b82525050565b6000613cdf8285613928565b9150613ceb8284613928565b91508190509392505050565b6000613d0282613bf2565b9150613d0e8285613928565b9150613d1982613c5b565b9150613d258284613928565b91508190509392505050565b6000602082019050613d466000830184613889565b92915050565b6000608082019050613d616000830187613889565b613d6e6020830186613889565b613d7b6040830185613cc4565b8181036060830152613d8d81846138b6565b905095945050505050565b6000604082019050613dad6000830185613889565b613dba6020830184613cc4565b9392505050565b6000602082019050613dd66000830184613898565b92915050565b6000602082019050613df160008301846138a7565b92915050565b60006020820190508181036000830152613e1181846138ef565b905092915050565b60006040820190508181036000830152613e3381856138ef565b9050613e426020830184613889565b9392505050565b60006040820190508181036000830152613e6381856138ef565b90508181036020830152613e7781846138ef565b90509392505050565b60006020820190508181036000830152613e9981613959565b9050919050565b60006020820190508181036000830152613eb98161397c565b9050919050565b60006020820190508181036000830152613ed98161399f565b9050919050565b60006020820190508181036000830152613ef9816139c2565b9050919050565b60006020820190508181036000830152613f19816139e5565b9050919050565b60006020820190508181036000830152613f3981613a08565b9050919050565b60006020820190508181036000830152613f5981613a2b565b9050919050565b60006020820190508181036000830152613f7981613a4e565b9050919050565b60006020820190508181036000830152613f9981613a71565b9050919050565b60006020820190508181036000830152613fb981613a94565b9050919050565b60006020820190508181036000830152613fd981613ab7565b9050919050565b60006020820190508181036000830152613ff981613ada565b9050919050565b6000602082019050818103600083015261401981613afd565b9050919050565b6000602082019050818103600083015261403981613b20565b9050919050565b6000602082019050818103600083015261405981613b43565b9050919050565b6000602082019050818103600083015261407981613b66565b9050919050565b6000602082019050818103600083015261409981613b89565b9050919050565b600060208201905081810360008301526140b981613bac565b9050919050565b600060208201905081810360008301526140d981613bcf565b9050919050565b600060208201905081810360008301526140f981613c15565b9050919050565b6000602082019050818103600083015261411981613c38565b9050919050565b6000602082019050818103600083015261413981613c7e565b9050919050565b6000602082019050818103600083015261415981613ca1565b9050919050565b60006020820190506141756000830184613cc4565b92915050565b6000614185614196565b905061419182826144a0565b919050565b6000604051905090565b600067ffffffffffffffff8211156141bb576141ba6145d8565b5b6141c482614607565b9050602081019050919050565b600067ffffffffffffffff8211156141ec576141eb6145d8565b5b6141f582614607565b9050602081019050919050565b600081519050919050565b600081519050919050565b600082825260208201905092915050565b600082825260208201905092915050565b600081905092915050565b6000614250826143e0565b915061425b836143e0565b9250827fffffffffffffffffffffffffffffffffffffffffffffffffffffffffffffffff038211156142905761428f61454b565b5b828201905092915050565b60006142a6826143e0565b91506142b1836143e0565b9250826142c1576142c061457a565b5b828204905092915050565b60006142d7826143e0565b91506142e2836143e0565b9250817fffffffffffffffffffffffffffffffffffffffffffffffffffffffffffffffff048311821515161561431b5761431a61454b565b5b828202905092915050565b6000614331826143e0565b915061433c836143e0565b92508282101561434f5761434e61454b565b5b828203905092915050565b6000614365826143c0565b9050919050565b6000614377826143c0565b9050919050565b60008115159050919050565b6000819050919050565b60007fffffffff0000000000000000000000000000000000000000000000000000000082169050919050565b600073ffffffffffffffffffffffffffffffffffffffff82169050919050565b6000819050919050565b60006bffffffffffffffffffffffff82169050919050565b82818337600083830152505050565b60005b8381101561442f578082015181840152602081019050614414565b8381111561443e576000848401525b50505050565b600061444f826143e0565b915060008214156144635761446261454b565b5b600182039050919050565b6000600282049050600182168061448657607f821691505b6020821081141561449a576144996145a9565b5b50919050565b6144a982614607565b810181811067ffffffffffffffff821117156144c8576144c76145d8565b5b80604052505050565b60006144dc826143e0565b91507fffffffffffffffffffffffffffffffffffffffffffffffffffffffffffffffff82141561450f5761450e61454b565b5b600182019050919050565b6000614525826143e0565b9150614530836143e0565b9250826145405761453f61457a565b5b828206905092915050565b7f4e487b7100000000000000000000000000000000000000000000000000000000600052601160045260246000fd5b7f4e487b7100000000000000000000000000000000000000000000000000000000600052601260045260246000fd5b7f4e487b7100000000000000000000000000000000000000000000000000000000600052602260045260246000fd5b7f4e487b7100000000000000000000000000000000000000000000000000000000600052604160045260246000fd5b6000601f19601f8301169050919050565b7f537472696e67733a20686578206c656e67746820696e73756666696369656e74600082015250565b7f4552433732313a207472616e7366657220746f206e6f6e20455243373231526560008201527f63656976657220696d706c656d656e7465720000000000000000000000000000602082015250565b7f4552433732313a207472616e736665722066726f6d20696e636f72726563742060008201527f6f776e6572000000000000000000000000000000000000000000000000000000602082015250565b7f4552433732313a20746f6b656e20616c7265616479206d696e74656400000000600082015250565b7f57696e657279206164647265737320616c72656164792072656769737465726560008201527f6400000000000000000000000000000000000000000000000000000000000000602082015250565b7f4552433732313a207472616e7366657220746f20746865207a65726f2061646460008201527f7265737300000000000000000000000000000000000000000000000000000000602082015250565b7f4552433732313a20617070726f766520746f2063616c6c657200000000000000600082015250565b7f4552433732313a206f70657261746f7220717565727920666f72206e6f6e657860008201527f697374656e7420746f6b656e0000000000000000000000000000000000000000602082015250565b7f4552433732313a20617070726f76652063616c6c6572206973206e6f74206f7760008201527f6e6572206e6f7220617070726f76656420666f7220616c6c0000000000000000602082015250565b7f4552433732313a2062616c616e636520717565727920666f7220746865207a6560008201527f726f206164647265737300000000000000000000000000000000000000000000602082015250565b7f4552433732313a206f776e657220717565727920666f72206e6f6e657869737460008201527f656e7420746f6b656e0000000000000000000000000000000000000000000000602082015250565b7f45524337323155524953746f726167653a2055524920736574206f66206e6f6e60008201527f6578697374656e7420746f6b656e000000000000000000000000000000000000602082015250565b7f4552433732313a206d696e7420746f20746865207a65726f2061646472657373600082015250565b7f45524337323155524953746f726167653a2055524920717565727920666f722060008201527f6e6f6e6578697374656e7420746f6b656e000000000000000000000000000000602082015250565b7f4552433732313a20617070726f76656420717565727920666f72206e6f6e657860008201527f697374656e7420746f6b656e0000000000000000000000000000000000000000602082015250565b7f4552433732314d657461646174613a2055524920717565727920666f72206e6f60008201527f6e6578697374656e7420746f6b656e0000000000000000000000000000000000602082015250565b7f4552433732313a20617070726f76616c20746f2063757272656e74206f776e6560008201527f7200000000000000000000000000000000000000000000000000000000000000602082015250565b7f4552433732313a207472616e736665722063616c6c6572206973206e6f74206f60008201527f776e6572206e6f7220617070726f766564000000000000000000000000000000602082015250565b7f455243323938313a20496e76616c696420706172616d65746572730000000000600082015250565b7f416363657373436f6e74726f6c3a206163636f756e7420000000000000000000600082015250565b7f455243323938313a20726f79616c7479206665652077696c6c2065786365656460008201527f2073616c65507269636500000000000000000000000000000000000000000000602082015250565b7f57696e657279206e6f7420726567697374657265640000000000000000000000600082015250565b7f206973206d697373696e6720726f6c6520000000000000000000000000000000600082015250565b7f4d7573742073656e6420656e6f7567682045544820746f20696e69746961746560008201527f2073616c652e0000000000000000000000000000000000000000000000000000602082015250565b7f416363657373436f6e74726f6c3a2063616e206f6e6c792072656e6f756e636560008201527f20726f6c657320666f722073656c660000000000000000000000000000000000602082015250565b614ca88161435a565b8114614cb357600080fd5b50565b614cbf8161436c565b8114614cca57600080fd5b50565b614cd68161437e565b8114614ce157600080fd5b50565b614ced8161438a565b8114614cf857600080fd5b50565b614d0481614394565b8114614d0f57600080fd5b50565b614d1b816143e0565b8114614d2657600080fd5b50565b614d32816143ea565b8114614d3d57600080fd5b5056fea2646970667358221220be5d889f37079c46647fbb75e8b3c8dcf9e2dd7dab823f299da6924068eaaf3464736f6c63430008040033",
  "linkReferences": {},
  "deployedLinkReferences": {}
}