{
  "contractName": "Whine",
  "abi": [
    {
      "anonymous": false,
      "inputs": [
        {
          "indexed": false,
          "internalType": "uint256",
          "name": "num",
          "type": "uint256"
        }
      ],
      "name": "Log",
      "type": "event"
    },
    {
      "inputs": [
        {
          "internalType": "uint256",
          "name": "",
          "type": "uint256"
        }
      ],
      "name": "bottles",
      "outputs": [
        {
          "internalType": "string",
          "name": "name",
          "type": "string"
        },
        {
          "internalType": "string",
          "name": "brand",
          "type": "string"
        },
        {
          "internalType": "uint256",
          "name": "id",
          "type": "uint256"
        },
        {
          "internalType": "uint16",
          "name": "vintage",
          "type": "uint16"
        }
      ],
      "stateMutability": "view",
      "type": "function",
      "constant": true
    },
    {
      "inputs": [],
      "name": "drinkSomethingEpoch",
      "outputs": [],
      "stateMutability": "nonpayable",
      "type": "function"
    }
  ],
  "bytecode": "0x608060405234801561001057600080fd5b5061069b806100206000396000f3fe608060405234801561001057600080fd5b50600436106100365760003560e01c8063dac6971a1461003b578063df71fb121461006e575b600080fd5b6100556004803603810190610050919061042a565b610078565b60405161006594939291906104fe565b60405180910390f35b6100766101d6565b005b6001818154811061008857600080fd5b90600052602060002090600402016000915090508060000180546100ab906105dc565b80601f01602080910402602001604051908101604052809291908181526020018280546100d7906105dc565b80156101245780601f106100f957610100808354040283529160200191610124565b820191906000526020600020905b81548152906001019060200180831161010757829003601f168201915b505050505090806001018054610139906105dc565b80601f0160208091040260200160405190810160405280929190818152602001828054610165906105dc565b80156101b25780601f10610187576101008083540402835291602001916101b2565b820191906000526020600020905b81548152906001019060200180831161019557829003601f168201915b5050505050908060020154908060030160009054906101000a900461ffff16905084565b7f909c57d5c6ac08245cf2a6de3900e2b868513fa59099b92b27d8db823d92df9c600060405161020691906104c8565b60405180910390a1600160405180608001604052806040518060400160405280600781526020017f566572697461730000000000000000000000000000000000000000000000000081525081526020016040518060400160405280600581526020017f45706f6368000000000000000000000000000000000000000000000000000000815250815260200160018054905081526020016107e561ffff16815250908060018154018082558091505060019003906000526020600020906004020160009091909190915060008201518160000190805190602001906102eb929190610372565b506020820151816001019080519060200190610308929190610372565b506040820151816002015560608201518160030160006101000a81548161ffff021916908361ffff16021790555050507f909c57d5c6ac08245cf2a6de3900e2b868513fa59099b92b27d8db823d92df9c600160405161036891906104e3565b60405180910390a1565b82805461037e906105dc565b90600052602060002090601f0160209004810192826103a057600085556103e7565b82601f106103b957805160ff19168380011785556103e7565b828001600101855582156103e7579182015b828111156103e65782518255916020019190600101906103cb565b5b5090506103f491906103f8565b5090565b5b808211156104115760008160009055506001016103f9565b5090565b6000813590506104248161064e565b92915050565b60006020828403121561043c57600080fd5b600061044a84828501610415565b91505092915050565b61045c81610585565b82525050565b61046b81610597565b82525050565b600061047c82610551565b610486818561055c565b93506104968185602086016105a9565b61049f8161063d565b840191505092915050565b6104b38161056d565b82525050565b6104c28161057b565b82525050565b60006020820190506104dd6000830184610453565b92915050565b60006020820190506104f86000830184610462565b92915050565b600060808201905081810360008301526105188187610471565b9050818103602083015261052c8186610471565b905061053b60408301856104b9565b61054860608301846104aa565b95945050505050565b600081519050919050565b600082825260208201905092915050565b600061ffff82169050919050565b6000819050919050565b60006105908261057b565b9050919050565b60006105a28261057b565b9050919050565b60005b838110156105c75780820151818401526020810190506105ac565b838111156105d6576000848401525b50505050565b600060028204905060018216806105f457607f821691505b602082108114156106085761060761060e565b5b50919050565b7f4e487b7100000000000000000000000000000000000000000000000000000000600052602260045260246000fd5b6000601f19601f8301169050919050565b6106578161057b565b811461066257600080fd5b5056fea2646970667358221220a289d02e5fe1a0330abb4c1da9c76f5e1bc702918014479caa4198e0b53ec34164736f6c63430008030033",
  "immutableReferences": {},
  "source": "pragma solidity >=0.8.0 <0.9.0;\n\ncontract Whine {\n  uint storedData;\n\n  struct Bottle {\n    string name;\n    string brand;\n    uint id;\n    uint16 vintage;\n  }\n\n  event Log(uint num);\n\n  Bottle[] public bottles;\n\n  // function getBottle(uint id) public view returns (uint) {\n  //   return bottles[id].id;\n  // }\n\n  function drinkSomethingEpoch() public {\n    emit Log(0);\n    bottles.push(Bottle(\"Veritas\", \"Epoch\", bottles.length, 2021)); \n    emit Log(1);\n  }\n}\n",
  "sourcePath": "/home/lucian/projects/whine/contracts/Whine.sol",
  "compiler": {
    "name": "solc",
    "version": "0.8.3+commit.8d00100c.Emscripten.clang"
  },
  "schemaVersion": "3.4.7",
  "updatedAt": "2022-05-31T13:50:31.446Z",
  "networkType": "ethereum",
  "devdoc": {
    "kind": "dev",
    "methods": {},
    "version": 1
  },
  "userdoc": {
    "kind": "user",
    "methods": {},
    "version": 1
  }
}